{
	"contracts/PROJECTS/MESSENGER/Contract.sol": {
		"Contract": {
			"abi": [
				{
					"inputs": [],
					"stateMutability": "nonpayable",
					"type": "constructor"
				},
				{
					"inputs": [],
					"name": "count",
					"outputs": [
						{
							"internalType": "uint256",
							"name": "",
							"type": "uint256"
						}
					],
					"stateMutability": "view",
					"type": "function"
				},
				{
					"inputs": [],
					"name": "message",
					"outputs": [
						{
							"internalType": "string",
							"name": "",
							"type": "string"
						}
					],
					"stateMutability": "view",
					"type": "function"
				},
				{
					"inputs": [],
					"name": "owner",
					"outputs": [
						{
							"internalType": "address",
							"name": "",
							"type": "address"
						}
					],
					"stateMutability": "view",
					"type": "function"
				},
				{
					"inputs": [
						{
							"internalType": "string",
							"name": "_message",
							"type": "string"
						}
					],
					"name": "updateMessage",
					"outputs": [],
					"stateMutability": "nonpayable",
					"type": "function"
				}
			],
			"devdoc": {
				"kind": "dev",
				"methods": {},
				"version": 1
			},
			"evm": {
				"assembly": "    /* \"contracts/PROJECTS/MESSENGER/Contract.sol\":57:380  contract Contract{... */\n  mstore(0x40, 0x80)\n    /* \"contracts/PROJECTS/MESSENGER/Contract.sol\":160:210  constructor(){... */\n  callvalue\n  dup1\n  iszero\n  tag_1\n  jumpi\n  0x00\n  dup1\n  revert\ntag_1:\n  pop\n    /* \"contracts/PROJECTS/MESSENGER/Contract.sol\":192:202  msg.sender */\n  caller\n    /* \"contracts/PROJECTS/MESSENGER/Contract.sol\":184:189  owner */\n  0x01\n  0x00\n    /* \"contracts/PROJECTS/MESSENGER/Contract.sol\":184:202  owner = msg.sender */\n  0x0100\n  exp\n  dup2\n  sload\n  dup2\n  0xffffffffffffffffffffffffffffffffffffffff\n  mul\n  not\n  and\n  swap1\n  dup4\n  0xffffffffffffffffffffffffffffffffffffffff\n  and\n  mul\n  or\n  swap1\n  sstore\n  pop\n    /* \"contracts/PROJECTS/MESSENGER/Contract.sol\":57:380  contract Contract{... */\n  dataSize(sub_0)\n  dup1\n  dataOffset(sub_0)\n  0x00\n  codecopy\n  0x00\n  return\nstop\n\nsub_0: assembly {\n        /* \"contracts/PROJECTS/MESSENGER/Contract.sol\":57:380  contract Contract{... */\n      mstore(0x40, 0x80)\n      callvalue\n      dup1\n      iszero\n      tag_1\n      jumpi\n      0x00\n      dup1\n      revert\n    tag_1:\n      pop\n      jumpi(tag_2, lt(calldatasize, 0x04))\n      shr(0xe0, calldataload(0x00))\n      dup1\n      0x06661abd\n      eq\n      tag_3\n      jumpi\n      dup1\n      0x1923be24\n      eq\n      tag_4\n      jumpi\n      dup1\n      0x8da5cb5b\n      eq\n      tag_5\n      jumpi\n      dup1\n      0xe21f37ce\n      eq\n      tag_6\n      jumpi\n    tag_2:\n      0x00\n      dup1\n      revert\n        /* \"contracts/PROJECTS/MESSENGER/Contract.sol\":81:98  uint public count */\n    tag_3:\n      tag_7\n      tag_8\n      jump\t// in\n    tag_7:\n      mload(0x40)\n      tag_9\n      swap2\n      swap1\n      tag_10\n      jump\t// in\n    tag_9:\n      mload(0x40)\n      dup1\n      swap2\n      sub\n      swap1\n      return\n        /* \"contracts/PROJECTS/MESSENGER/Contract.sol\":216:377  function updateMessage (string memory _message) public {... */\n    tag_4:\n      tag_11\n      0x04\n      dup1\n      calldatasize\n      sub\n      dup2\n      add\n      swap1\n      tag_12\n      swap2\n      swap1\n      tag_13\n      jump\t// in\n    tag_12:\n      tag_14\n      jump\t// in\n    tag_11:\n      stop\n        /* \"contracts/PROJECTS/MESSENGER/Contract.sol\":105:125  address public owner */\n    tag_5:\n      tag_15\n      tag_16\n      jump\t// in\n    tag_15:\n      mload(0x40)\n      tag_17\n      swap2\n      swap1\n      tag_18\n      jump\t// in\n    tag_17:\n      mload(0x40)\n      dup1\n      swap2\n      sub\n      swap1\n      return\n        /* \"contracts/PROJECTS/MESSENGER/Contract.sol\":132:153  string public message */\n    tag_6:\n      tag_19\n      tag_20\n      jump\t// in\n    tag_19:\n      mload(0x40)\n      tag_21\n      swap2\n      swap1\n      tag_22\n      jump\t// in\n    tag_21:\n      mload(0x40)\n      dup1\n      swap2\n      sub\n      swap1\n      return\n        /* \"contracts/PROJECTS/MESSENGER/Contract.sol\":81:98  uint public count */\n    tag_8:\n      sload(0x00)\n      dup2\n      jump\t// out\n        /* \"contracts/PROJECTS/MESSENGER/Contract.sol\":216:377  function updateMessage (string memory _message) public {... */\n    tag_14:\n        /* \"contracts/PROJECTS/MESSENGER/Contract.sol\":297:302  owner */\n      0x01\n      0x00\n      swap1\n      sload\n      swap1\n      0x0100\n      exp\n      swap1\n      div\n      0xffffffffffffffffffffffffffffffffffffffff\n      and\n        /* \"contracts/PROJECTS/MESSENGER/Contract.sol\":285:302  msg.sender==owner */\n      0xffffffffffffffffffffffffffffffffffffffff\n      and\n        /* \"contracts/PROJECTS/MESSENGER/Contract.sol\":285:295  msg.sender */\n      caller\n        /* \"contracts/PROJECTS/MESSENGER/Contract.sol\":285:302  msg.sender==owner */\n      0xffffffffffffffffffffffffffffffffffffffff\n      and\n      sub\n        /* \"contracts/PROJECTS/MESSENGER/Contract.sol\":282:370  if(msg.sender==owner){... */\n      tag_24\n      jumpi\n        /* \"contracts/PROJECTS/MESSENGER/Contract.sol\":328:336  _message */\n      dup1\n        /* \"contracts/PROJECTS/MESSENGER/Contract.sol\":318:325  message */\n      0x02\n        /* \"contracts/PROJECTS/MESSENGER/Contract.sol\":318:336  message = _message */\n      swap1\n      dup2\n      tag_25\n      swap2\n      swap1\n      tag_26\n      jump\t// in\n    tag_25:\n      pop\n        /* \"contracts/PROJECTS/MESSENGER/Contract.sol\":351:356  count */\n      0x00\n      dup1\n        /* \"contracts/PROJECTS/MESSENGER/Contract.sol\":351:358  count++ */\n      dup2\n      sload\n      dup1\n      swap3\n      swap2\n      swap1\n      tag_27\n      swap1\n      tag_28\n      jump\t// in\n    tag_27:\n      swap2\n      swap1\n      pop\n      sstore\n      pop\n        /* \"contracts/PROJECTS/MESSENGER/Contract.sol\":282:370  if(msg.sender==owner){... */\n    tag_24:\n        /* \"contracts/PROJECTS/MESSENGER/Contract.sol\":216:377  function updateMessage (string memory _message) public {... */\n      pop\n      jump\t// out\n        /* \"contracts/PROJECTS/MESSENGER/Contract.sol\":105:125  address public owner */\n    tag_16:\n      0x01\n      0x00\n      swap1\n      sload\n      swap1\n      0x0100\n      exp\n      swap1\n      div\n      0xffffffffffffffffffffffffffffffffffffffff\n      and\n      dup2\n      jump\t// out\n        /* \"contracts/PROJECTS/MESSENGER/Contract.sol\":132:153  string public message */\n    tag_20:\n      0x02\n      dup1\n      sload\n      tag_29\n      swap1\n      tag_30\n      jump\t// in\n    tag_29:\n      dup1\n      0x1f\n      add\n      0x20\n      dup1\n      swap2\n      div\n      mul\n      0x20\n      add\n      mload(0x40)\n      swap1\n      dup2\n      add\n      0x40\n      mstore\n      dup1\n      swap3\n      swap2\n      swap1\n      dup2\n      dup2\n      mstore\n      0x20\n      add\n      dup3\n      dup1\n      sload\n      tag_31\n      swap1\n      tag_30\n      jump\t// in\n    tag_31:\n      dup1\n      iszero\n      tag_32\n      jumpi\n      dup1\n      0x1f\n      lt\n      tag_33\n      jumpi\n      0x0100\n      dup1\n      dup4\n      sload\n      div\n      mul\n      dup4\n      mstore\n      swap2\n      0x20\n      add\n      swap2\n      jump(tag_32)\n    tag_33:\n      dup3\n      add\n      swap2\n      swap1\n      0x00\n      mstore\n      keccak256(0x00, 0x20)\n      swap1\n    tag_34:\n      dup2\n      sload\n      dup2\n      mstore\n      swap1\n      0x01\n      add\n      swap1\n      0x20\n      add\n      dup1\n      dup4\n      gt\n      tag_34\n      jumpi\n      dup3\n      swap1\n      sub\n      0x1f\n      and\n      dup3\n      add\n      swap2\n    tag_32:\n      pop\n      pop\n      pop\n      pop\n      pop\n      dup2\n      jump\t// out\n        /* \"#utility.yul\":7:84   */\n    tag_35:\n        /* \"#utility.yul\":44:51   */\n      0x00\n        /* \"#utility.yul\":73:78   */\n      dup2\n        /* \"#utility.yul\":62:78   */\n      swap1\n      pop\n        /* \"#utility.yul\":7:84   */\n      swap2\n      swap1\n      pop\n      jump\t// out\n        /* \"#utility.yul\":90:208   */\n    tag_36:\n        /* \"#utility.yul\":177:201   */\n      tag_77\n        /* \"#utility.yul\":195:200   */\n      dup2\n        /* \"#utility.yul\":177:201   */\n      tag_35\n      jump\t// in\n    tag_77:\n        /* \"#utility.yul\":172:175   */\n      dup3\n        /* \"#utility.yul\":165:202   */\n      mstore\n        /* \"#utility.yul\":90:208   */\n      pop\n      pop\n      jump\t// out\n        /* \"#utility.yul\":214:436   */\n    tag_10:\n        /* \"#utility.yul\":307:311   */\n      0x00\n        /* \"#utility.yul\":345:347   */\n      0x20\n        /* \"#utility.yul\":334:343   */\n      dup3\n        /* \"#utility.yul\":330:348   */\n      add\n        /* \"#utility.yul\":322:348   */\n      swap1\n      pop\n        /* \"#utility.yul\":358:429   */\n      tag_79\n        /* \"#utility.yul\":426:427   */\n      0x00\n        /* \"#utility.yul\":415:424   */\n      dup4\n        /* \"#utility.yul\":411:428   */\n      add\n        /* \"#utility.yul\":402:408   */\n      dup5\n        /* \"#utility.yul\":358:429   */\n      tag_36\n      jump\t// in\n    tag_79:\n        /* \"#utility.yul\":214:436   */\n      swap3\n      swap2\n      pop\n      pop\n      jump\t// out\n        /* \"#utility.yul\":442:517   */\n    tag_37:\n        /* \"#utility.yul\":475:481   */\n      0x00\n        /* \"#utility.yul\":508:510   */\n      0x40\n        /* \"#utility.yul\":502:511   */\n      mload\n        /* \"#utility.yul\":492:511   */\n      swap1\n      pop\n        /* \"#utility.yul\":442:517   */\n      swap1\n      jump\t// out\n        /* \"#utility.yul\":523:640   */\n    tag_38:\n        /* \"#utility.yul\":632:633   */\n      0x00\n        /* \"#utility.yul\":629:630   */\n      dup1\n        /* \"#utility.yul\":622:634   */\n      revert\n        /* \"#utility.yul\":646:763   */\n    tag_39:\n        /* \"#utility.yul\":755:756   */\n      0x00\n        /* \"#utility.yul\":752:753   */\n      dup1\n        /* \"#utility.yul\":745:757   */\n      revert\n        /* \"#utility.yul\":769:886   */\n    tag_40:\n        /* \"#utility.yul\":878:879   */\n      0x00\n        /* \"#utility.yul\":875:876   */\n      dup1\n        /* \"#utility.yul\":868:880   */\n      revert\n        /* \"#utility.yul\":892:1009   */\n    tag_41:\n        /* \"#utility.yul\":1001:1002   */\n      0x00\n        /* \"#utility.yul\":998:999   */\n      dup1\n        /* \"#utility.yul\":991:1003   */\n      revert\n        /* \"#utility.yul\":1015:1117   */\n    tag_42:\n        /* \"#utility.yul\":1056:1062   */\n      0x00\n        /* \"#utility.yul\":1107:1109   */\n      0x1f\n        /* \"#utility.yul\":1103:1110   */\n      not\n        /* \"#utility.yul\":1098:1100   */\n      0x1f\n        /* \"#utility.yul\":1091:1096   */\n      dup4\n        /* \"#utility.yul\":1087:1101   */\n      add\n        /* \"#utility.yul\":1083:1111   */\n      and\n        /* \"#utility.yul\":1073:1111   */\n      swap1\n      pop\n        /* \"#utility.yul\":1015:1117   */\n      swap2\n      swap1\n      pop\n      jump\t// out\n        /* \"#utility.yul\":1123:1303   */\n    tag_43:\n        /* \"#utility.yul\":1171:1248   */\n      0x4e487b7100000000000000000000000000000000000000000000000000000000\n        /* \"#utility.yul\":1168:1169   */\n      0x00\n        /* \"#utility.yul\":1161:1249   */\n      mstore\n        /* \"#utility.yul\":1268:1272   */\n      0x41\n        /* \"#utility.yul\":1265:1266   */\n      0x04\n        /* \"#utility.yul\":1258:1273   */\n      mstore\n        /* \"#utility.yul\":1292:1296   */\n      0x24\n        /* \"#utility.yul\":1289:1290   */\n      0x00\n        /* \"#utility.yul\":1282:1297   */\n      revert\n        /* \"#utility.yul\":1309:1590   */\n    tag_44:\n        /* \"#utility.yul\":1392:1419   */\n      tag_88\n        /* \"#utility.yul\":1414:1418   */\n      dup3\n        /* \"#utility.yul\":1392:1419   */\n      tag_42\n      jump\t// in\n    tag_88:\n        /* \"#utility.yul\":1384:1390   */\n      dup2\n        /* \"#utility.yul\":1380:1420   */\n      add\n        /* \"#utility.yul\":1522:1528   */\n      dup2\n        /* \"#utility.yul\":1510:1520   */\n      dup2\n        /* \"#utility.yul\":1507:1529   */\n      lt\n        /* \"#utility.yul\":1486:1504   */\n      0xffffffffffffffff\n        /* \"#utility.yul\":1474:1484   */\n      dup3\n        /* \"#utility.yul\":1471:1505   */\n      gt\n        /* \"#utility.yul\":1468:1530   */\n      or\n        /* \"#utility.yul\":1465:1553   */\n      iszero\n      tag_89\n      jumpi\n        /* \"#utility.yul\":1533:1551   */\n      tag_90\n      tag_43\n      jump\t// in\n    tag_90:\n        /* \"#utility.yul\":1465:1553   */\n    tag_89:\n        /* \"#utility.yul\":1573:1583   */\n      dup1\n        /* \"#utility.yul\":1569:1571   */\n      0x40\n        /* \"#utility.yul\":1562:1584   */\n      mstore\n        /* \"#utility.yul\":1352:1590   */\n      pop\n        /* \"#utility.yul\":1309:1590   */\n      pop\n      pop\n      jump\t// out\n        /* \"#utility.yul\":1596:1725   */\n    tag_45:\n        /* \"#utility.yul\":1630:1636   */\n      0x00\n        /* \"#utility.yul\":1657:1677   */\n      tag_92\n      tag_37\n      jump\t// in\n    tag_92:\n        /* \"#utility.yul\":1647:1677   */\n      swap1\n      pop\n        /* \"#utility.yul\":1686:1719   */\n      tag_93\n        /* \"#utility.yul\":1714:1718   */\n      dup3\n        /* \"#utility.yul\":1706:1712   */\n      dup3\n        /* \"#utility.yul\":1686:1719   */\n      tag_44\n      jump\t// in\n    tag_93:\n        /* \"#utility.yul\":1596:1725   */\n      swap2\n      swap1\n      pop\n      jump\t// out\n        /* \"#utility.yul\":1731:2039   */\n    tag_46:\n        /* \"#utility.yul\":1793:1797   */\n      0x00\n        /* \"#utility.yul\":1883:1901   */\n      0xffffffffffffffff\n        /* \"#utility.yul\":1875:1881   */\n      dup3\n        /* \"#utility.yul\":1872:1902   */\n      gt\n        /* \"#utility.yul\":1869:1925   */\n      iszero\n      tag_95\n      jumpi\n        /* \"#utility.yul\":1905:1923   */\n      tag_96\n      tag_43\n      jump\t// in\n    tag_96:\n        /* \"#utility.yul\":1869:1925   */\n    tag_95:\n        /* \"#utility.yul\":1943:1972   */\n      tag_97\n        /* \"#utility.yul\":1965:1971   */\n      dup3\n        /* \"#utility.yul\":1943:1972   */\n      tag_42\n      jump\t// in\n    tag_97:\n        /* \"#utility.yul\":1935:1972   */\n      swap1\n      pop\n        /* \"#utility.yul\":2027:2031   */\n      0x20\n        /* \"#utility.yul\":2021:2025   */\n      dup2\n        /* \"#utility.yul\":2017:2032   */\n      add\n        /* \"#utility.yul\":2009:2032   */\n      swap1\n      pop\n        /* \"#utility.yul\":1731:2039   */\n      swap2\n      swap1\n      pop\n      jump\t// out\n        /* \"#utility.yul\":2045:2199   */\n    tag_47:\n        /* \"#utility.yul\":2129:2135   */\n      dup3\n        /* \"#utility.yul\":2124:2127   */\n      dup2\n        /* \"#utility.yul\":2119:2122   */\n      dup4\n        /* \"#utility.yul\":2106:2136   */\n      calldatacopy\n        /* \"#utility.yul\":2191:2192   */\n      0x00\n        /* \"#utility.yul\":2182:2188   */\n      dup4\n        /* \"#utility.yul\":2177:2180   */\n      dup4\n        /* \"#utility.yul\":2173:2189   */\n      add\n        /* \"#utility.yul\":2166:2193   */\n      mstore\n        /* \"#utility.yul\":2045:2199   */\n      pop\n      pop\n      pop\n      jump\t// out\n        /* \"#utility.yul\":2205:2617   */\n    tag_48:\n        /* \"#utility.yul\":2283:2288   */\n      0x00\n        /* \"#utility.yul\":2308:2374   */\n      tag_100\n        /* \"#utility.yul\":2324:2373   */\n      tag_101\n        /* \"#utility.yul\":2366:2372   */\n      dup5\n        /* \"#utility.yul\":2324:2373   */\n      tag_46\n      jump\t// in\n    tag_101:\n        /* \"#utility.yul\":2308:2374   */\n      tag_45\n      jump\t// in\n    tag_100:\n        /* \"#utility.yul\":2299:2374   */\n      swap1\n      pop\n        /* \"#utility.yul\":2397:2403   */\n      dup3\n        /* \"#utility.yul\":2390:2395   */\n      dup2\n        /* \"#utility.yul\":2383:2404   */\n      mstore\n        /* \"#utility.yul\":2435:2439   */\n      0x20\n        /* \"#utility.yul\":2428:2433   */\n      dup2\n        /* \"#utility.yul\":2424:2440   */\n      add\n        /* \"#utility.yul\":2473:2476   */\n      dup5\n        /* \"#utility.yul\":2464:2470   */\n      dup5\n        /* \"#utility.yul\":2459:2462   */\n      dup5\n        /* \"#utility.yul\":2455:2471   */\n      add\n        /* \"#utility.yul\":2452:2477   */\n      gt\n        /* \"#utility.yul\":2449:2561   */\n      iszero\n      tag_102\n      jumpi\n        /* \"#utility.yul\":2480:2559   */\n      tag_103\n      tag_41\n      jump\t// in\n    tag_103:\n        /* \"#utility.yul\":2449:2561   */\n    tag_102:\n        /* \"#utility.yul\":2570:2611   */\n      tag_104\n        /* \"#utility.yul\":2604:2610   */\n      dup5\n        /* \"#utility.yul\":2599:2602   */\n      dup3\n        /* \"#utility.yul\":2594:2597   */\n      dup6\n        /* \"#utility.yul\":2570:2611   */\n      tag_47\n      jump\t// in\n    tag_104:\n        /* \"#utility.yul\":2289:2617   */\n      pop\n        /* \"#utility.yul\":2205:2617   */\n      swap4\n      swap3\n      pop\n      pop\n      pop\n      jump\t// out\n        /* \"#utility.yul\":2637:2977   */\n    tag_49:\n        /* \"#utility.yul\":2693:2698   */\n      0x00\n        /* \"#utility.yul\":2742:2745   */\n      dup3\n        /* \"#utility.yul\":2735:2739   */\n      0x1f\n        /* \"#utility.yul\":2727:2733   */\n      dup4\n        /* \"#utility.yul\":2723:2740   */\n      add\n        /* \"#utility.yul\":2719:2746   */\n      slt\n        /* \"#utility.yul\":2709:2831   */\n      tag_106\n      jumpi\n        /* \"#utility.yul\":2750:2829   */\n      tag_107\n      tag_40\n      jump\t// in\n    tag_107:\n        /* \"#utility.yul\":2709:2831   */\n    tag_106:\n        /* \"#utility.yul\":2867:2873   */\n      dup2\n        /* \"#utility.yul\":2854:2874   */\n      calldataload\n        /* \"#utility.yul\":2892:2971   */\n      tag_108\n        /* \"#utility.yul\":2967:2970   */\n      dup5\n        /* \"#utility.yul\":2959:2965   */\n      dup3\n        /* \"#utility.yul\":2952:2956   */\n      0x20\n        /* \"#utility.yul\":2944:2950   */\n      dup7\n        /* \"#utility.yul\":2940:2957   */\n      add\n        /* \"#utility.yul\":2892:2971   */\n      tag_48\n      jump\t// in\n    tag_108:\n        /* \"#utility.yul\":2883:2971   */\n      swap2\n      pop\n        /* \"#utility.yul\":2699:2977   */\n      pop\n        /* \"#utility.yul\":2637:2977   */\n      swap3\n      swap2\n      pop\n      pop\n      jump\t// out\n        /* \"#utility.yul\":2983:3492   */\n    tag_13:\n        /* \"#utility.yul\":3052:3058   */\n      0x00\n        /* \"#utility.yul\":3101:3103   */\n      0x20\n        /* \"#utility.yul\":3089:3098   */\n      dup3\n        /* \"#utility.yul\":3080:3087   */\n      dup5\n        /* \"#utility.yul\":3076:3099   */\n      sub\n        /* \"#utility.yul\":3072:3104   */\n      slt\n        /* \"#utility.yul\":3069:3188   */\n      iszero\n      tag_110\n      jumpi\n        /* \"#utility.yul\":3107:3186   */\n      tag_111\n      tag_38\n      jump\t// in\n    tag_111:\n        /* \"#utility.yul\":3069:3188   */\n    tag_110:\n        /* \"#utility.yul\":3255:3256   */\n      0x00\n        /* \"#utility.yul\":3244:3253   */\n      dup3\n        /* \"#utility.yul\":3240:3257   */\n      add\n        /* \"#utility.yul\":3227:3258   */\n      calldataload\n        /* \"#utility.yul\":3285:3303   */\n      0xffffffffffffffff\n        /* \"#utility.yul\":3277:3283   */\n      dup2\n        /* \"#utility.yul\":3274:3304   */\n      gt\n        /* \"#utility.yul\":3271:3388   */\n      iszero\n      tag_112\n      jumpi\n        /* \"#utility.yul\":3307:3386   */\n      tag_113\n      tag_39\n      jump\t// in\n    tag_113:\n        /* \"#utility.yul\":3271:3388   */\n    tag_112:\n        /* \"#utility.yul\":3412:3475   */\n      tag_114\n        /* \"#utility.yul\":3467:3474   */\n      dup5\n        /* \"#utility.yul\":3458:3464   */\n      dup3\n        /* \"#utility.yul\":3447:3456   */\n      dup6\n        /* \"#utility.yul\":3443:3465   */\n      add\n        /* \"#utility.yul\":3412:3475   */\n      tag_49\n      jump\t// in\n    tag_114:\n        /* \"#utility.yul\":3402:3475   */\n      swap2\n      pop\n        /* \"#utility.yul\":3198:3485   */\n      pop\n        /* \"#utility.yul\":2983:3492   */\n      swap3\n      swap2\n      pop\n      pop\n      jump\t// out\n        /* \"#utility.yul\":3498:3624   */\n    tag_50:\n        /* \"#utility.yul\":3535:3542   */\n      0x00\n        /* \"#utility.yul\":3575:3617   */\n      0xffffffffffffffffffffffffffffffffffffffff\n        /* \"#utility.yul\":3568:3573   */\n      dup3\n        /* \"#utility.yul\":3564:3618   */\n      and\n        /* \"#utility.yul\":3553:3618   */\n      swap1\n      pop\n        /* \"#utility.yul\":3498:3624   */\n      swap2\n      swap1\n      pop\n      jump\t// out\n        /* \"#utility.yul\":3630:3726   */\n    tag_51:\n        /* \"#utility.yul\":3667:3674   */\n      0x00\n        /* \"#utility.yul\":3696:3720   */\n      tag_117\n        /* \"#utility.yul\":3714:3719   */\n      dup3\n        /* \"#utility.yul\":3696:3720   */\n      tag_50\n      jump\t// in\n    tag_117:\n        /* \"#utility.yul\":3685:3720   */\n      swap1\n      pop\n        /* \"#utility.yul\":3630:3726   */\n      swap2\n      swap1\n      pop\n      jump\t// out\n        /* \"#utility.yul\":3732:3850   */\n    tag_52:\n        /* \"#utility.yul\":3819:3843   */\n      tag_119\n        /* \"#utility.yul\":3837:3842   */\n      dup2\n        /* \"#utility.yul\":3819:3843   */\n      tag_51\n      jump\t// in\n    tag_119:\n        /* \"#utility.yul\":3814:3817   */\n      dup3\n        /* \"#utility.yul\":3807:3844   */\n      mstore\n        /* \"#utility.yul\":3732:3850   */\n      pop\n      pop\n      jump\t// out\n        /* \"#utility.yul\":3856:4078   */\n    tag_18:\n        /* \"#utility.yul\":3949:3953   */\n      0x00\n        /* \"#utility.yul\":3987:3989   */\n      0x20\n        /* \"#utility.yul\":3976:3985   */\n      dup3\n        /* \"#utility.yul\":3972:3990   */\n      add\n        /* \"#utility.yul\":3964:3990   */\n      swap1\n      pop\n        /* \"#utility.yul\":4000:4071   */\n      tag_121\n        /* \"#utility.yul\":4068:4069   */\n      0x00\n        /* \"#utility.yul\":4057:4066   */\n      dup4\n        /* \"#utility.yul\":4053:4070   */\n      add\n        /* \"#utility.yul\":4044:4050   */\n      dup5\n        /* \"#utility.yul\":4000:4071   */\n      tag_52\n      jump\t// in\n    tag_121:\n        /* \"#utility.yul\":3856:4078   */\n      swap3\n      swap2\n      pop\n      pop\n      jump\t// out\n        /* \"#utility.yul\":4084:4183   */\n    tag_53:\n        /* \"#utility.yul\":4136:4142   */\n      0x00\n        /* \"#utility.yul\":4170:4175   */\n      dup2\n        /* \"#utility.yul\":4164:4176   */\n      mload\n        /* \"#utility.yul\":4154:4176   */\n      swap1\n      pop\n        /* \"#utility.yul\":4084:4183   */\n      swap2\n      swap1\n      pop\n      jump\t// out\n        /* \"#utility.yul\":4189:4358   */\n    tag_54:\n        /* \"#utility.yul\":4273:4284   */\n      0x00\n        /* \"#utility.yul\":4307:4313   */\n      dup3\n        /* \"#utility.yul\":4302:4305   */\n      dup3\n        /* \"#utility.yul\":4295:4314   */\n      mstore\n        /* \"#utility.yul\":4347:4351   */\n      0x20\n        /* \"#utility.yul\":4342:4345   */\n      dup3\n        /* \"#utility.yul\":4338:4352   */\n      add\n        /* \"#utility.yul\":4323:4352   */\n      swap1\n      pop\n        /* \"#utility.yul\":4189:4358   */\n      swap3\n      swap2\n      pop\n      pop\n      jump\t// out\n        /* \"#utility.yul\":4364:4671   */\n    tag_55:\n        /* \"#utility.yul\":4432:4433   */\n      0x00\n        /* \"#utility.yul\":4442:4555   */\n    tag_125:\n        /* \"#utility.yul\":4456:4462   */\n      dup4\n        /* \"#utility.yul\":4453:4454   */\n      dup2\n        /* \"#utility.yul\":4450:4463   */\n      lt\n        /* \"#utility.yul\":4442:4555   */\n      iszero\n      tag_127\n      jumpi\n        /* \"#utility.yul\":4541:4542   */\n      dup1\n        /* \"#utility.yul\":4536:4539   */\n      dup3\n        /* \"#utility.yul\":4532:4543   */\n      add\n        /* \"#utility.yul\":4526:4544   */\n      mload\n        /* \"#utility.yul\":4522:4523   */\n      dup2\n        /* \"#utility.yul\":4517:4520   */\n      dup5\n        /* \"#utility.yul\":4513:4524   */\n      add\n        /* \"#utility.yul\":4506:4545   */\n      mstore\n        /* \"#utility.yul\":4478:4480   */\n      0x20\n        /* \"#utility.yul\":4475:4476   */\n      dup2\n        /* \"#utility.yul\":4471:4481   */\n      add\n        /* \"#utility.yul\":4466:4481   */\n      swap1\n      pop\n        /* \"#utility.yul\":4442:4555   */\n      jump(tag_125)\n    tag_127:\n        /* \"#utility.yul\":4573:4579   */\n      dup4\n        /* \"#utility.yul\":4570:4571   */\n      dup2\n        /* \"#utility.yul\":4567:4580   */\n      gt\n        /* \"#utility.yul\":4564:4665   */\n      iszero\n      tag_128\n      jumpi\n        /* \"#utility.yul\":4653:4654   */\n      0x00\n        /* \"#utility.yul\":4644:4650   */\n      dup5\n        /* \"#utility.yul\":4639:4642   */\n      dup5\n        /* \"#utility.yul\":4635:4651   */\n      add\n        /* \"#utility.yul\":4628:4655   */\n      mstore\n        /* \"#utility.yul\":4564:4665   */\n    tag_128:\n        /* \"#utility.yul\":4413:4671   */\n      pop\n        /* \"#utility.yul\":4364:4671   */\n      pop\n      pop\n      pop\n      jump\t// out\n        /* \"#utility.yul\":4677:5041   */\n    tag_56:\n        /* \"#utility.yul\":4765:4768   */\n      0x00\n        /* \"#utility.yul\":4793:4832   */\n      tag_130\n        /* \"#utility.yul\":4826:4831   */\n      dup3\n        /* \"#utility.yul\":4793:4832   */\n      tag_53\n      jump\t// in\n    tag_130:\n        /* \"#utility.yul\":4848:4919   */\n      tag_131\n        /* \"#utility.yul\":4912:4918   */\n      dup2\n        /* \"#utility.yul\":4907:4910   */\n      dup6\n        /* \"#utility.yul\":4848:4919   */\n      tag_54\n      jump\t// in\n    tag_131:\n        /* \"#utility.yul\":4841:4919   */\n      swap4\n      pop\n        /* \"#utility.yul\":4928:4980   */\n      tag_132\n        /* \"#utility.yul\":4973:4979   */\n      dup2\n        /* \"#utility.yul\":4968:4971   */\n      dup6\n        /* \"#utility.yul\":4961:4965   */\n      0x20\n        /* \"#utility.yul\":4954:4959   */\n      dup7\n        /* \"#utility.yul\":4950:4966   */\n      add\n        /* \"#utility.yul\":4928:4980   */\n      tag_55\n      jump\t// in\n    tag_132:\n        /* \"#utility.yul\":5005:5034   */\n      tag_133\n        /* \"#utility.yul\":5027:5033   */\n      dup2\n        /* \"#utility.yul\":5005:5034   */\n      tag_42\n      jump\t// in\n    tag_133:\n        /* \"#utility.yul\":5000:5003   */\n      dup5\n        /* \"#utility.yul\":4996:5035   */\n      add\n        /* \"#utility.yul\":4989:5035   */\n      swap2\n      pop\n        /* \"#utility.yul\":4769:5041   */\n      pop\n        /* \"#utility.yul\":4677:5041   */\n      swap3\n      swap2\n      pop\n      pop\n      jump\t// out\n        /* \"#utility.yul\":5047:5360   */\n    tag_22:\n        /* \"#utility.yul\":5160:5164   */\n      0x00\n        /* \"#utility.yul\":5198:5200   */\n      0x20\n        /* \"#utility.yul\":5187:5196   */\n      dup3\n        /* \"#utility.yul\":5183:5201   */\n      add\n        /* \"#utility.yul\":5175:5201   */\n      swap1\n      pop\n        /* \"#utility.yul\":5247:5256   */\n      dup2\n        /* \"#utility.yul\":5241:5245   */\n      dup2\n        /* \"#utility.yul\":5237:5257   */\n      sub\n        /* \"#utility.yul\":5233:5234   */\n      0x00\n        /* \"#utility.yul\":5222:5231   */\n      dup4\n        /* \"#utility.yul\":5218:5235   */\n      add\n        /* \"#utility.yul\":5211:5258   */\n      mstore\n        /* \"#utility.yul\":5275:5353   */\n      tag_135\n        /* \"#utility.yul\":5348:5352   */\n      dup2\n        /* \"#utility.yul\":5339:5345   */\n      dup5\n        /* \"#utility.yul\":5275:5353   */\n      tag_56\n      jump\t// in\n    tag_135:\n        /* \"#utility.yul\":5267:5353   */\n      swap1\n      pop\n        /* \"#utility.yul\":5047:5360   */\n      swap3\n      swap2\n      pop\n      pop\n      jump\t// out\n        /* \"#utility.yul\":5366:5546   */\n    tag_57:\n        /* \"#utility.yul\":5414:5491   */\n      0x4e487b7100000000000000000000000000000000000000000000000000000000\n        /* \"#utility.yul\":5411:5412   */\n      0x00\n        /* \"#utility.yul\":5404:5492   */\n      mstore\n        /* \"#utility.yul\":5511:5515   */\n      0x22\n        /* \"#utility.yul\":5508:5509   */\n      0x04\n        /* \"#utility.yul\":5501:5516   */\n      mstore\n        /* \"#utility.yul\":5535:5539   */\n      0x24\n        /* \"#utility.yul\":5532:5533   */\n      0x00\n        /* \"#utility.yul\":5525:5540   */\n      revert\n        /* \"#utility.yul\":5552:5872   */\n    tag_30:\n        /* \"#utility.yul\":5596:5602   */\n      0x00\n        /* \"#utility.yul\":5633:5634   */\n      0x02\n        /* \"#utility.yul\":5627:5631   */\n      dup3\n        /* \"#utility.yul\":5623:5635   */\n      div\n        /* \"#utility.yul\":5613:5635   */\n      swap1\n      pop\n        /* \"#utility.yul\":5680:5681   */\n      0x01\n        /* \"#utility.yul\":5674:5678   */\n      dup3\n        /* \"#utility.yul\":5670:5682   */\n      and\n        /* \"#utility.yul\":5701:5719   */\n      dup1\n        /* \"#utility.yul\":5691:5772   */\n      tag_138\n      jumpi\n        /* \"#utility.yul\":5757:5761   */\n      0x7f\n        /* \"#utility.yul\":5749:5755   */\n      dup3\n        /* \"#utility.yul\":5745:5762   */\n      and\n        /* \"#utility.yul\":5735:5762   */\n      swap2\n      pop\n        /* \"#utility.yul\":5691:5772   */\n    tag_138:\n        /* \"#utility.yul\":5819:5821   */\n      0x20\n        /* \"#utility.yul\":5811:5817   */\n      dup3\n        /* \"#utility.yul\":5808:5822   */\n      lt\n        /* \"#utility.yul\":5788:5806   */\n      dup2\n        /* \"#utility.yul\":5785:5823   */\n      sub\n        /* \"#utility.yul\":5782:5866   */\n      tag_139\n      jumpi\n        /* \"#utility.yul\":5838:5856   */\n      tag_140\n      tag_57\n      jump\t// in\n    tag_140:\n        /* \"#utility.yul\":5782:5866   */\n    tag_139:\n        /* \"#utility.yul\":5603:5872   */\n      pop\n        /* \"#utility.yul\":5552:5872   */\n      swap2\n      swap1\n      pop\n      jump\t// out\n        /* \"#utility.yul\":5878:6019   */\n    tag_58:\n        /* \"#utility.yul\":5927:5931   */\n      0x00\n        /* \"#utility.yul\":5950:5953   */\n      dup2\n        /* \"#utility.yul\":5942:5953   */\n      swap1\n      pop\n        /* \"#utility.yul\":5973:5976   */\n      dup2\n        /* \"#utility.yul\":5970:5971   */\n      0x00\n        /* \"#utility.yul\":5963:5977   */\n      mstore\n        /* \"#utility.yul\":6007:6011   */\n      0x20\n        /* \"#utility.yul\":6004:6005   */\n      0x00\n        /* \"#utility.yul\":5994:6012   */\n      keccak256\n        /* \"#utility.yul\":5986:6012   */\n      swap1\n      pop\n        /* \"#utility.yul\":5878:6019   */\n      swap2\n      swap1\n      pop\n      jump\t// out\n        /* \"#utility.yul\":6025:6118   */\n    tag_59:\n        /* \"#utility.yul\":6062:6068   */\n      0x00\n        /* \"#utility.yul\":6109:6111   */\n      0x20\n        /* \"#utility.yul\":6104:6106   */\n      0x1f\n        /* \"#utility.yul\":6097:6102   */\n      dup4\n        /* \"#utility.yul\":6093:6107   */\n      add\n        /* \"#utility.yul\":6089:6112   */\n      div\n        /* \"#utility.yul\":6079:6112   */\n      swap1\n      pop\n        /* \"#utility.yul\":6025:6118   */\n      swap2\n      swap1\n      pop\n      jump\t// out\n        /* \"#utility.yul\":6124:6231   */\n    tag_60:\n        /* \"#utility.yul\":6168:6176   */\n      0x00\n        /* \"#utility.yul\":6218:6223   */\n      dup3\n        /* \"#utility.yul\":6212:6216   */\n      dup3\n        /* \"#utility.yul\":6208:6224   */\n      shl\n        /* \"#utility.yul\":6187:6224   */\n      swap1\n      pop\n        /* \"#utility.yul\":6124:6231   */\n      swap3\n      swap2\n      pop\n      pop\n      jump\t// out\n        /* \"#utility.yul\":6237:6630   */\n    tag_61:\n        /* \"#utility.yul\":6306:6312   */\n      0x00\n        /* \"#utility.yul\":6356:6357   */\n      0x08\n        /* \"#utility.yul\":6344:6354   */\n      dup4\n        /* \"#utility.yul\":6340:6358   */\n      mul\n        /* \"#utility.yul\":6379:6476   */\n      tag_145\n        /* \"#utility.yul\":6409:6475   */\n      0xffffffffffffffffffffffffffffffffffffffffffffffffffffffffffffffff\n        /* \"#utility.yul\":6398:6407   */\n      dup3\n        /* \"#utility.yul\":6379:6476   */\n      tag_60\n      jump\t// in\n    tag_145:\n        /* \"#utility.yul\":6497:6536   */\n      tag_146\n        /* \"#utility.yul\":6527:6535   */\n      dup7\n        /* \"#utility.yul\":6516:6525   */\n      dup4\n        /* \"#utility.yul\":6497:6536   */\n      tag_60\n      jump\t// in\n    tag_146:\n        /* \"#utility.yul\":6485:6536   */\n      swap6\n      pop\n        /* \"#utility.yul\":6569:6573   */\n      dup1\n        /* \"#utility.yul\":6565:6574   */\n      not\n        /* \"#utility.yul\":6558:6563   */\n      dup5\n        /* \"#utility.yul\":6554:6575   */\n      and\n        /* \"#utility.yul\":6545:6575   */\n      swap4\n      pop\n        /* \"#utility.yul\":6618:6622   */\n      dup1\n        /* \"#utility.yul\":6608:6616   */\n      dup7\n        /* \"#utility.yul\":6604:6623   */\n      and\n        /* \"#utility.yul\":6597:6602   */\n      dup5\n        /* \"#utility.yul\":6594:6624   */\n      or\n        /* \"#utility.yul\":6584:6624   */\n      swap3\n      pop\n        /* \"#utility.yul\":6313:6630   */\n      pop\n      pop\n        /* \"#utility.yul\":6237:6630   */\n      swap4\n      swap3\n      pop\n      pop\n      pop\n      jump\t// out\n        /* \"#utility.yul\":6636:6696   */\n    tag_62:\n        /* \"#utility.yul\":6664:6667   */\n      0x00\n        /* \"#utility.yul\":6685:6690   */\n      dup2\n        /* \"#utility.yul\":6678:6690   */\n      swap1\n      pop\n        /* \"#utility.yul\":6636:6696   */\n      swap2\n      swap1\n      pop\n      jump\t// out\n        /* \"#utility.yul\":6702:6844   */\n    tag_63:\n        /* \"#utility.yul\":6752:6761   */\n      0x00\n        /* \"#utility.yul\":6785:6838   */\n      tag_149\n        /* \"#utility.yul\":6803:6837   */\n      tag_150\n        /* \"#utility.yul\":6812:6836   */\n      tag_151\n        /* \"#utility.yul\":6830:6835   */\n      dup5\n        /* \"#utility.yul\":6812:6836   */\n      tag_35\n      jump\t// in\n    tag_151:\n        /* \"#utility.yul\":6803:6837   */\n      tag_62\n      jump\t// in\n    tag_150:\n        /* \"#utility.yul\":6785:6838   */\n      tag_35\n      jump\t// in\n    tag_149:\n        /* \"#utility.yul\":6772:6838   */\n      swap1\n      pop\n        /* \"#utility.yul\":6702:6844   */\n      swap2\n      swap1\n      pop\n      jump\t// out\n        /* \"#utility.yul\":6850:6925   */\n    tag_64:\n        /* \"#utility.yul\":6893:6896   */\n      0x00\n        /* \"#utility.yul\":6914:6919   */\n      dup2\n        /* \"#utility.yul\":6907:6919   */\n      swap1\n      pop\n        /* \"#utility.yul\":6850:6925   */\n      swap2\n      swap1\n      pop\n      jump\t// out\n        /* \"#utility.yul\":6931:7200   */\n    tag_65:\n        /* \"#utility.yul\":7041:7080   */\n      tag_154\n        /* \"#utility.yul\":7072:7079   */\n      dup4\n        /* \"#utility.yul\":7041:7080   */\n      tag_63\n      jump\t// in\n    tag_154:\n        /* \"#utility.yul\":7102:7193   */\n      tag_155\n        /* \"#utility.yul\":7151:7192   */\n      tag_156\n        /* \"#utility.yul\":7175:7191   */\n      dup3\n        /* \"#utility.yul\":7151:7192   */\n      tag_64\n      jump\t// in\n    tag_156:\n        /* \"#utility.yul\":7143:7149   */\n      dup5\n        /* \"#utility.yul\":7136:7140   */\n      dup5\n        /* \"#utility.yul\":7130:7141   */\n      sload\n        /* \"#utility.yul\":7102:7193   */\n      tag_61\n      jump\t// in\n    tag_155:\n        /* \"#utility.yul\":7096:7100   */\n      dup3\n        /* \"#utility.yul\":7089:7194   */\n      sstore\n        /* \"#utility.yul\":7007:7200   */\n      pop\n        /* \"#utility.yul\":6931:7200   */\n      pop\n      pop\n      pop\n      jump\t// out\n        /* \"#utility.yul\":7206:7279   */\n    tag_66:\n        /* \"#utility.yul\":7251:7254   */\n      0x00\n        /* \"#utility.yul\":7206:7279   */\n      swap1\n      jump\t// out\n        /* \"#utility.yul\":7285:7474   */\n    tag_67:\n        /* \"#utility.yul\":7362:7394   */\n      tag_159\n      tag_66\n      jump\t// in\n    tag_159:\n        /* \"#utility.yul\":7403:7468   */\n      tag_160\n        /* \"#utility.yul\":7461:7467   */\n      dup2\n        /* \"#utility.yul\":7453:7459   */\n      dup5\n        /* \"#utility.yul\":7447:7451   */\n      dup5\n        /* \"#utility.yul\":7403:7468   */\n      tag_65\n      jump\t// in\n    tag_160:\n        /* \"#utility.yul\":7338:7474   */\n      pop\n        /* \"#utility.yul\":7285:7474   */\n      pop\n      pop\n      jump\t// out\n        /* \"#utility.yul\":7480:7666   */\n    tag_68:\n        /* \"#utility.yul\":7540:7660   */\n    tag_162:\n        /* \"#utility.yul\":7557:7560   */\n      dup2\n        /* \"#utility.yul\":7550:7555   */\n      dup2\n        /* \"#utility.yul\":7547:7561   */\n      lt\n        /* \"#utility.yul\":7540:7660   */\n      iszero\n      tag_164\n      jumpi\n        /* \"#utility.yul\":7611:7650   */\n      tag_165\n        /* \"#utility.yul\":7648:7649   */\n      0x00\n        /* \"#utility.yul\":7641:7646   */\n      dup3\n        /* \"#utility.yul\":7611:7650   */\n      tag_67\n      jump\t// in\n    tag_165:\n        /* \"#utility.yul\":7584:7585   */\n      0x01\n        /* \"#utility.yul\":7577:7582   */\n      dup2\n        /* \"#utility.yul\":7573:7586   */\n      add\n        /* \"#utility.yul\":7564:7586   */\n      swap1\n      pop\n        /* \"#utility.yul\":7540:7660   */\n      jump(tag_162)\n    tag_164:\n        /* \"#utility.yul\":7480:7666   */\n      pop\n      pop\n      jump\t// out\n        /* \"#utility.yul\":7672:8215   */\n    tag_69:\n        /* \"#utility.yul\":7773:7775   */\n      0x1f\n        /* \"#utility.yul\":7768:7771   */\n      dup3\n        /* \"#utility.yul\":7765:7776   */\n      gt\n        /* \"#utility.yul\":7762:8208   */\n      iszero\n      tag_167\n      jumpi\n        /* \"#utility.yul\":7807:7845   */\n      tag_168\n        /* \"#utility.yul\":7839:7844   */\n      dup2\n        /* \"#utility.yul\":7807:7845   */\n      tag_58\n      jump\t// in\n    tag_168:\n        /* \"#utility.yul\":7891:7920   */\n      tag_169\n        /* \"#utility.yul\":7909:7919   */\n      dup5\n        /* \"#utility.yul\":7891:7920   */\n      tag_59\n      jump\t// in\n    tag_169:\n        /* \"#utility.yul\":7881:7889   */\n      dup2\n        /* \"#utility.yul\":7877:7921   */\n      add\n        /* \"#utility.yul\":8074:8076   */\n      0x20\n        /* \"#utility.yul\":8062:8072   */\n      dup6\n        /* \"#utility.yul\":8059:8077   */\n      lt\n        /* \"#utility.yul\":8056:8105   */\n      iszero\n      tag_170\n      jumpi\n        /* \"#utility.yul\":8095:8103   */\n      dup2\n        /* \"#utility.yul\":8080:8103   */\n      swap1\n      pop\n        /* \"#utility.yul\":8056:8105   */\n    tag_170:\n        /* \"#utility.yul\":8118:8198   */\n      tag_171\n        /* \"#utility.yul\":8174:8196   */\n      tag_172\n        /* \"#utility.yul\":8192:8195   */\n      dup6\n        /* \"#utility.yul\":8174:8196   */\n      tag_59\n      jump\t// in\n    tag_172:\n        /* \"#utility.yul\":8164:8172   */\n      dup4\n        /* \"#utility.yul\":8160:8197   */\n      add\n        /* \"#utility.yul\":8147:8158   */\n      dup3\n        /* \"#utility.yul\":8118:8198   */\n      tag_68\n      jump\t// in\n    tag_171:\n        /* \"#utility.yul\":7777:8208   */\n      pop\n      pop\n        /* \"#utility.yul\":7762:8208   */\n    tag_167:\n        /* \"#utility.yul\":7672:8215   */\n      pop\n      pop\n      pop\n      jump\t// out\n        /* \"#utility.yul\":8221:8338   */\n    tag_70:\n        /* \"#utility.yul\":8275:8283   */\n      0x00\n        /* \"#utility.yul\":8325:8330   */\n      dup3\n        /* \"#utility.yul\":8319:8323   */\n      dup3\n        /* \"#utility.yul\":8315:8331   */\n      shr\n        /* \"#utility.yul\":8294:8331   */\n      swap1\n      pop\n        /* \"#utility.yul\":8221:8338   */\n      swap3\n      swap2\n      pop\n      pop\n      jump\t// out\n        /* \"#utility.yul\":8344:8513   */\n    tag_71:\n        /* \"#utility.yul\":8388:8394   */\n      0x00\n        /* \"#utility.yul\":8421:8472   */\n      tag_175\n        /* \"#utility.yul\":8469:8470   */\n      0x00\n        /* \"#utility.yul\":8465:8471   */\n      not\n        /* \"#utility.yul\":8457:8462   */\n      dup5\n        /* \"#utility.yul\":8454:8455   */\n      0x08\n        /* \"#utility.yul\":8450:8463   */\n      mul\n        /* \"#utility.yul\":8421:8472   */\n      tag_70\n      jump\t// in\n    tag_175:\n        /* \"#utility.yul\":8417:8473   */\n      not\n        /* \"#utility.yul\":8502:8506   */\n      dup1\n        /* \"#utility.yul\":8496:8500   */\n      dup4\n        /* \"#utility.yul\":8492:8507   */\n      and\n        /* \"#utility.yul\":8482:8507   */\n      swap2\n      pop\n        /* \"#utility.yul\":8395:8513   */\n      pop\n        /* \"#utility.yul\":8344:8513   */\n      swap3\n      swap2\n      pop\n      pop\n      jump\t// out\n        /* \"#utility.yul\":8518:8813   */\n    tag_72:\n        /* \"#utility.yul\":8594:8598   */\n      0x00\n        /* \"#utility.yul\":8740:8769   */\n      tag_177\n        /* \"#utility.yul\":8765:8768   */\n      dup4\n        /* \"#utility.yul\":8759:8763   */\n      dup4\n        /* \"#utility.yul\":8740:8769   */\n      tag_71\n      jump\t// in\n    tag_177:\n        /* \"#utility.yul\":8732:8769   */\n      swap2\n      pop\n        /* \"#utility.yul\":8802:8805   */\n      dup3\n        /* \"#utility.yul\":8799:8800   */\n      0x02\n        /* \"#utility.yul\":8795:8806   */\n      mul\n        /* \"#utility.yul\":8789:8793   */\n      dup3\n        /* \"#utility.yul\":8786:8807   */\n      or\n        /* \"#utility.yul\":8778:8807   */\n      swap1\n      pop\n        /* \"#utility.yul\":8518:8813   */\n      swap3\n      swap2\n      pop\n      pop\n      jump\t// out\n        /* \"#utility.yul\":8818:10213   */\n    tag_26:\n        /* \"#utility.yul\":8935:8972   */\n      tag_179\n        /* \"#utility.yul\":8968:8971   */\n      dup3\n        /* \"#utility.yul\":8935:8972   */\n      tag_53\n      jump\t// in\n    tag_179:\n        /* \"#utility.yul\":9037:9055   */\n      0xffffffffffffffff\n        /* \"#utility.yul\":9029:9035   */\n      dup2\n        /* \"#utility.yul\":9026:9056   */\n      gt\n        /* \"#utility.yul\":9023:9079   */\n      iszero\n      tag_180\n      jumpi\n        /* \"#utility.yul\":9059:9077   */\n      tag_181\n      tag_43\n      jump\t// in\n    tag_181:\n        /* \"#utility.yul\":9023:9079   */\n    tag_180:\n        /* \"#utility.yul\":9103:9141   */\n      tag_182\n        /* \"#utility.yul\":9135:9139   */\n      dup3\n        /* \"#utility.yul\":9129:9140   */\n      sload\n        /* \"#utility.yul\":9103:9141   */\n      tag_30\n      jump\t// in\n    tag_182:\n        /* \"#utility.yul\":9188:9255   */\n      tag_183\n        /* \"#utility.yul\":9248:9254   */\n      dup3\n        /* \"#utility.yul\":9240:9246   */\n      dup3\n        /* \"#utility.yul\":9234:9238   */\n      dup6\n        /* \"#utility.yul\":9188:9255   */\n      tag_69\n      jump\t// in\n    tag_183:\n        /* \"#utility.yul\":9282:9283   */\n      0x00\n        /* \"#utility.yul\":9306:9310   */\n      0x20\n        /* \"#utility.yul\":9293:9310   */\n      swap1\n      pop\n        /* \"#utility.yul\":9338:9340   */\n      0x1f\n        /* \"#utility.yul\":9330:9336   */\n      dup4\n        /* \"#utility.yul\":9327:9341   */\n      gt\n        /* \"#utility.yul\":9355:9356   */\n      0x01\n        /* \"#utility.yul\":9350:9968   */\n      dup2\n      eq\n      tag_185\n      jumpi\n        /* \"#utility.yul\":10012:10013   */\n      0x00\n        /* \"#utility.yul\":10029:10035   */\n      dup5\n        /* \"#utility.yul\":10026:10103   */\n      iszero\n      tag_186\n      jumpi\n        /* \"#utility.yul\":10078:10087   */\n      dup3\n        /* \"#utility.yul\":10073:10076   */\n      dup8\n        /* \"#utility.yul\":10069:10088   */\n      add\n        /* \"#utility.yul\":10063:10089   */\n      mload\n        /* \"#utility.yul\":10054:10089   */\n      swap1\n      pop\n        /* \"#utility.yul\":10026:10103   */\n    tag_186:\n        /* \"#utility.yul\":10129:10196   */\n      tag_187\n        /* \"#utility.yul\":10189:10195   */\n      dup6\n        /* \"#utility.yul\":10182:10187   */\n      dup3\n        /* \"#utility.yul\":10129:10196   */\n      tag_72\n      jump\t// in\n    tag_187:\n        /* \"#utility.yul\":10123:10127   */\n      dup7\n        /* \"#utility.yul\":10116:10197   */\n      sstore\n        /* \"#utility.yul\":9985:10207   */\n      pop\n        /* \"#utility.yul\":9320:10207   */\n      jump(tag_184)\n        /* \"#utility.yul\":9350:9968   */\n    tag_185:\n        /* \"#utility.yul\":9402:9406   */\n      0x1f\n        /* \"#utility.yul\":9398:9407   */\n      not\n        /* \"#utility.yul\":9390:9396   */\n      dup5\n        /* \"#utility.yul\":9386:9408   */\n      and\n        /* \"#utility.yul\":9436:9473   */\n      tag_188\n        /* \"#utility.yul\":9468:9472   */\n      dup7\n        /* \"#utility.yul\":9436:9473   */\n      tag_58\n      jump\t// in\n    tag_188:\n        /* \"#utility.yul\":9495:9496   */\n      0x00\n        /* \"#utility.yul\":9509:9717   */\n    tag_189:\n        /* \"#utility.yul\":9523:9530   */\n      dup3\n        /* \"#utility.yul\":9520:9521   */\n      dup2\n        /* \"#utility.yul\":9517:9531   */\n      lt\n        /* \"#utility.yul\":9509:9717   */\n      iszero\n      tag_191\n      jumpi\n        /* \"#utility.yul\":9602:9611   */\n      dup5\n        /* \"#utility.yul\":9597:9600   */\n      dup10\n        /* \"#utility.yul\":9593:9612   */\n      add\n        /* \"#utility.yul\":9587:9613   */\n      mload\n        /* \"#utility.yul\":9579:9585   */\n      dup3\n        /* \"#utility.yul\":9572:9614   */\n      sstore\n        /* \"#utility.yul\":9653:9654   */\n      0x01\n        /* \"#utility.yul\":9645:9651   */\n      dup3\n        /* \"#utility.yul\":9641:9655   */\n      add\n        /* \"#utility.yul\":9631:9655   */\n      swap2\n      pop\n        /* \"#utility.yul\":9700:9702   */\n      0x20\n        /* \"#utility.yul\":9689:9698   */\n      dup6\n        /* \"#utility.yul\":9685:9703   */\n      add\n        /* \"#utility.yul\":9672:9703   */\n      swap5\n      pop\n        /* \"#utility.yul\":9546:9550   */\n      0x20\n        /* \"#utility.yul\":9543:9544   */\n      dup2\n        /* \"#utility.yul\":9539:9551   */\n      add\n        /* \"#utility.yul\":9534:9551   */\n      swap1\n      pop\n        /* \"#utility.yul\":9509:9717   */\n      jump(tag_189)\n    tag_191:\n        /* \"#utility.yul\":9745:9751   */\n      dup7\n        /* \"#utility.yul\":9736:9743   */\n      dup4\n        /* \"#utility.yul\":9733:9752   */\n      lt\n        /* \"#utility.yul\":9730:9909   */\n      iszero\n      tag_192\n      jumpi\n        /* \"#utility.yul\":9803:9812   */\n      dup5\n        /* \"#utility.yul\":9798:9801   */\n      dup10\n        /* \"#utility.yul\":9794:9813   */\n      add\n        /* \"#utility.yul\":9788:9814   */\n      mload\n        /* \"#utility.yul\":9846:9894   */\n      tag_193\n        /* \"#utility.yul\":9888:9892   */\n      0x1f\n        /* \"#utility.yul\":9880:9886   */\n      dup10\n        /* \"#utility.yul\":9876:9893   */\n      and\n        /* \"#utility.yul\":9865:9874   */\n      dup3\n        /* \"#utility.yul\":9846:9894   */\n      tag_71\n      jump\t// in\n    tag_193:\n        /* \"#utility.yul\":9838:9844   */\n      dup4\n        /* \"#utility.yul\":9831:9895   */\n      sstore\n        /* \"#utility.yul\":9753:9909   */\n      pop\n        /* \"#utility.yul\":9730:9909   */\n    tag_192:\n        /* \"#utility.yul\":9955:9956   */\n      0x01\n        /* \"#utility.yul\":9951:9952   */\n      0x02\n        /* \"#utility.yul\":9943:9949   */\n      dup9\n        /* \"#utility.yul\":9939:9953   */\n      mul\n        /* \"#utility.yul\":9935:9957   */\n      add\n        /* \"#utility.yul\":9929:9933   */\n      dup9\n        /* \"#utility.yul\":9922:9958   */\n      sstore\n        /* \"#utility.yul\":9357:9968   */\n      pop\n      pop\n      pop\n        /* \"#utility.yul\":9320:10207   */\n    tag_184:\n      pop\n        /* \"#utility.yul\":8910:10213   */\n      pop\n      pop\n      pop\n        /* \"#utility.yul\":8818:10213   */\n      pop\n      pop\n      jump\t// out\n        /* \"#utility.yul\":10219:10399   */\n    tag_73:\n        /* \"#utility.yul\":10267:10344   */\n      0x4e487b7100000000000000000000000000000000000000000000000000000000\n        /* \"#utility.yul\":10264:10265   */\n      0x00\n        /* \"#utility.yul\":10257:10345   */\n      mstore\n        /* \"#utility.yul\":10364:10368   */\n      0x11\n        /* \"#utility.yul\":10361:10362   */\n      0x04\n        /* \"#utility.yul\":10354:10369   */\n      mstore\n        /* \"#utility.yul\":10388:10392   */\n      0x24\n        /* \"#utility.yul\":10385:10386   */\n      0x00\n        /* \"#utility.yul\":10378:10393   */\n      revert\n        /* \"#utility.yul\":10405:10638   */\n    tag_28:\n        /* \"#utility.yul\":10444:10447   */\n      0x00\n        /* \"#utility.yul\":10467:10491   */\n      tag_196\n        /* \"#utility.yul\":10485:10490   */\n      dup3\n        /* \"#utility.yul\":10467:10491   */\n      tag_35\n      jump\t// in\n    tag_196:\n        /* \"#utility.yul\":10458:10491   */\n      swap2\n      pop\n        /* \"#utility.yul\":10513:10579   */\n      0xffffffffffffffffffffffffffffffffffffffffffffffffffffffffffffffff\n        /* \"#utility.yul\":10506:10511   */\n      dup3\n        /* \"#utility.yul\":10503:10580   */\n      sub\n        /* \"#utility.yul\":10500:10603   */\n      tag_197\n      jumpi\n        /* \"#utility.yul\":10583:10601   */\n      tag_198\n      tag_73\n      jump\t// in\n    tag_198:\n        /* \"#utility.yul\":10500:10603   */\n    tag_197:\n        /* \"#utility.yul\":10630:10631   */\n      0x01\n        /* \"#utility.yul\":10623:10628   */\n      dup3\n        /* \"#utility.yul\":10619:10632   */\n      add\n        /* \"#utility.yul\":10612:10632   */\n      swap1\n      pop\n        /* \"#utility.yul\":10405:10638   */\n      swap2\n      swap1\n      pop\n      jump\t// out\n\n    auxdata: 0xa2646970667358221220752ec9bd01836168f9e273c72f03085e4f75557a4a203829e93cf78ed62e61ac64736f6c634300080f0033\n}\n",
				"bytecode": {
					"linkReferences": {},
					"object": "608060405234801561001057600080fd5b5033600160006101000a81548173ffffffffffffffffffffffffffffffffffffffff021916908373ffffffffffffffffffffffffffffffffffffffff160217905550610869806100616000396000f3fe608060405234801561001057600080fd5b506004361061004c5760003560e01c806306661abd146100515780631923be241461006f5780638da5cb5b1461008b578063e21f37ce146100a9575b600080fd5b6100596100c7565b604051610066919061021a565b60405180910390f35b6100896004803603810190610084919061038f565b6100cd565b005b61009361014d565b6040516100a09190610419565b60405180910390f35b6100b1610173565b6040516100be91906104bc565b60405180910390f35b60005481565b600160009054906101000a900473ffffffffffffffffffffffffffffffffffffffff1673ffffffffffffffffffffffffffffffffffffffff163373ffffffffffffffffffffffffffffffffffffffff160361014a57806002908161013191906106ea565b50600080815480929190610144906107eb565b91905055505b50565b600160009054906101000a900473ffffffffffffffffffffffffffffffffffffffff1681565b600280546101809061050d565b80601f01602080910402602001604051908101604052809291908181526020018280546101ac9061050d565b80156101f95780601f106101ce576101008083540402835291602001916101f9565b820191906000526020600020905b8154815290600101906020018083116101dc57829003601f168201915b505050505081565b6000819050919050565b61021481610201565b82525050565b600060208201905061022f600083018461020b565b92915050565b6000604051905090565b600080fd5b600080fd5b600080fd5b600080fd5b6000601f19601f8301169050919050565b7f4e487b7100000000000000000000000000000000000000000000000000000000600052604160045260246000fd5b61029c82610253565b810181811067ffffffffffffffff821117156102bb576102ba610264565b5b80604052505050565b60006102ce610235565b90506102da8282610293565b919050565b600067ffffffffffffffff8211156102fa576102f9610264565b5b61030382610253565b9050602081019050919050565b82818337600083830152505050565b600061033261032d846102df565b6102c4565b90508281526020810184848401111561034e5761034d61024e565b5b610359848285610310565b509392505050565b600082601f83011261037657610375610249565b5b813561038684826020860161031f565b91505092915050565b6000602082840312156103a5576103a461023f565b5b600082013567ffffffffffffffff8111156103c3576103c2610244565b5b6103cf84828501610361565b91505092915050565b600073ffffffffffffffffffffffffffffffffffffffff82169050919050565b6000610403826103d8565b9050919050565b610413816103f8565b82525050565b600060208201905061042e600083018461040a565b92915050565b600081519050919050565b600082825260208201905092915050565b60005b8381101561046e578082015181840152602081019050610453565b8381111561047d576000848401525b50505050565b600061048e82610434565b610498818561043f565b93506104a8818560208601610450565b6104b181610253565b840191505092915050565b600060208201905081810360008301526104d68184610483565b905092915050565b7f4e487b7100000000000000000000000000000000000000000000000000000000600052602260045260246000fd5b6000600282049050600182168061052557607f821691505b602082108103610538576105376104de565b5b50919050565b60008190508160005260206000209050919050565b60006020601f8301049050919050565b600082821b905092915050565b6000600883026105a07fffffffffffffffffffffffffffffffffffffffffffffffffffffffffffffffff82610563565b6105aa8683610563565b95508019841693508086168417925050509392505050565b6000819050919050565b60006105e76105e26105dd84610201565b6105c2565b610201565b9050919050565b6000819050919050565b610601836105cc565b61061561060d826105ee565b848454610570565b825550505050565b600090565b61062a61061d565b6106358184846105f8565b505050565b5b818110156106595761064e600082610622565b60018101905061063b565b5050565b601f82111561069e5761066f8161053e565b61067884610553565b81016020851015610687578190505b61069b61069385610553565b83018261063a565b50505b505050565b600082821c905092915050565b60006106c1600019846008026106a3565b1980831691505092915050565b60006106da83836106b0565b9150826002028217905092915050565b6106f382610434565b67ffffffffffffffff81111561070c5761070b610264565b5b610716825461050d565b61072182828561065d565b600060209050601f8311600181146107545760008415610742578287015190505b61074c85826106ce565b8655506107b4565b601f1984166107628661053e565b60005b8281101561078a57848901518255600182019150602085019450602081019050610765565b868310156107a757848901516107a3601f8916826106b0565b8355505b6001600288020188555050505b505050505050565b7f4e487b7100000000000000000000000000000000000000000000000000000000600052601160045260246000fd5b60006107f682610201565b91507fffffffffffffffffffffffffffffffffffffffffffffffffffffffffffffffff8203610828576108276107bc565b5b60018201905091905056fea2646970667358221220752ec9bd01836168f9e273c72f03085e4f75557a4a203829e93cf78ed62e61ac64736f6c634300080f0033",
					"opcodes": "PUSH1 0x80 PUSH1 0x40 MSTORE CALLVALUE DUP1 ISZERO PUSH2 0x10 JUMPI PUSH1 0x0 DUP1 REVERT JUMPDEST POP CALLER PUSH1 0x1 PUSH1 0x0 PUSH2 0x100 EXP DUP2 SLOAD DUP2 PUSH20 0xFFFFFFFFFFFFFFFFFFFFFFFFFFFFFFFFFFFFFFFF MUL NOT AND SWAP1 DUP4 PUSH20 0xFFFFFFFFFFFFFFFFFFFFFFFFFFFFFFFFFFFFFFFF AND MUL OR SWAP1 SSTORE POP PUSH2 0x869 DUP1 PUSH2 0x61 PUSH1 0x0 CODECOPY PUSH1 0x0 RETURN INVALID PUSH1 0x80 PUSH1 0x40 MSTORE CALLVALUE DUP1 ISZERO PUSH2 0x10 JUMPI PUSH1 0x0 DUP1 REVERT JUMPDEST POP PUSH1 0x4 CALLDATASIZE LT PUSH2 0x4C JUMPI PUSH1 0x0 CALLDATALOAD PUSH1 0xE0 SHR DUP1 PUSH4 0x6661ABD EQ PUSH2 0x51 JUMPI DUP1 PUSH4 0x1923BE24 EQ PUSH2 0x6F JUMPI DUP1 PUSH4 0x8DA5CB5B EQ PUSH2 0x8B JUMPI DUP1 PUSH4 0xE21F37CE EQ PUSH2 0xA9 JUMPI JUMPDEST PUSH1 0x0 DUP1 REVERT JUMPDEST PUSH2 0x59 PUSH2 0xC7 JUMP JUMPDEST PUSH1 0x40 MLOAD PUSH2 0x66 SWAP2 SWAP1 PUSH2 0x21A JUMP JUMPDEST PUSH1 0x40 MLOAD DUP1 SWAP2 SUB SWAP1 RETURN JUMPDEST PUSH2 0x89 PUSH1 0x4 DUP1 CALLDATASIZE SUB DUP2 ADD SWAP1 PUSH2 0x84 SWAP2 SWAP1 PUSH2 0x38F JUMP JUMPDEST PUSH2 0xCD JUMP JUMPDEST STOP JUMPDEST PUSH2 0x93 PUSH2 0x14D JUMP JUMPDEST PUSH1 0x40 MLOAD PUSH2 0xA0 SWAP2 SWAP1 PUSH2 0x419 JUMP JUMPDEST PUSH1 0x40 MLOAD DUP1 SWAP2 SUB SWAP1 RETURN JUMPDEST PUSH2 0xB1 PUSH2 0x173 JUMP JUMPDEST PUSH1 0x40 MLOAD PUSH2 0xBE SWAP2 SWAP1 PUSH2 0x4BC JUMP JUMPDEST PUSH1 0x40 MLOAD DUP1 SWAP2 SUB SWAP1 RETURN JUMPDEST PUSH1 0x0 SLOAD DUP2 JUMP JUMPDEST PUSH1 0x1 PUSH1 0x0 SWAP1 SLOAD SWAP1 PUSH2 0x100 EXP SWAP1 DIV PUSH20 0xFFFFFFFFFFFFFFFFFFFFFFFFFFFFFFFFFFFFFFFF AND PUSH20 0xFFFFFFFFFFFFFFFFFFFFFFFFFFFFFFFFFFFFFFFF AND CALLER PUSH20 0xFFFFFFFFFFFFFFFFFFFFFFFFFFFFFFFFFFFFFFFF AND SUB PUSH2 0x14A JUMPI DUP1 PUSH1 0x2 SWAP1 DUP2 PUSH2 0x131 SWAP2 SWAP1 PUSH2 0x6EA JUMP JUMPDEST POP PUSH1 0x0 DUP1 DUP2 SLOAD DUP1 SWAP3 SWAP2 SWAP1 PUSH2 0x144 SWAP1 PUSH2 0x7EB JUMP JUMPDEST SWAP2 SWAP1 POP SSTORE POP JUMPDEST POP JUMP JUMPDEST PUSH1 0x1 PUSH1 0x0 SWAP1 SLOAD SWAP1 PUSH2 0x100 EXP SWAP1 DIV PUSH20 0xFFFFFFFFFFFFFFFFFFFFFFFFFFFFFFFFFFFFFFFF AND DUP2 JUMP JUMPDEST PUSH1 0x2 DUP1 SLOAD PUSH2 0x180 SWAP1 PUSH2 0x50D JUMP JUMPDEST DUP1 PUSH1 0x1F ADD PUSH1 0x20 DUP1 SWAP2 DIV MUL PUSH1 0x20 ADD PUSH1 0x40 MLOAD SWAP1 DUP2 ADD PUSH1 0x40 MSTORE DUP1 SWAP3 SWAP2 SWAP1 DUP2 DUP2 MSTORE PUSH1 0x20 ADD DUP3 DUP1 SLOAD PUSH2 0x1AC SWAP1 PUSH2 0x50D JUMP JUMPDEST DUP1 ISZERO PUSH2 0x1F9 JUMPI DUP1 PUSH1 0x1F LT PUSH2 0x1CE JUMPI PUSH2 0x100 DUP1 DUP4 SLOAD DIV MUL DUP4 MSTORE SWAP2 PUSH1 0x20 ADD SWAP2 PUSH2 0x1F9 JUMP JUMPDEST DUP3 ADD SWAP2 SWAP1 PUSH1 0x0 MSTORE PUSH1 0x20 PUSH1 0x0 KECCAK256 SWAP1 JUMPDEST DUP2 SLOAD DUP2 MSTORE SWAP1 PUSH1 0x1 ADD SWAP1 PUSH1 0x20 ADD DUP1 DUP4 GT PUSH2 0x1DC JUMPI DUP3 SWAP1 SUB PUSH1 0x1F AND DUP3 ADD SWAP2 JUMPDEST POP POP POP POP POP DUP2 JUMP JUMPDEST PUSH1 0x0 DUP2 SWAP1 POP SWAP2 SWAP1 POP JUMP JUMPDEST PUSH2 0x214 DUP2 PUSH2 0x201 JUMP JUMPDEST DUP3 MSTORE POP POP JUMP JUMPDEST PUSH1 0x0 PUSH1 0x20 DUP3 ADD SWAP1 POP PUSH2 0x22F PUSH1 0x0 DUP4 ADD DUP5 PUSH2 0x20B JUMP JUMPDEST SWAP3 SWAP2 POP POP JUMP JUMPDEST PUSH1 0x0 PUSH1 0x40 MLOAD SWAP1 POP SWAP1 JUMP JUMPDEST PUSH1 0x0 DUP1 REVERT JUMPDEST PUSH1 0x0 DUP1 REVERT JUMPDEST PUSH1 0x0 DUP1 REVERT JUMPDEST PUSH1 0x0 DUP1 REVERT JUMPDEST PUSH1 0x0 PUSH1 0x1F NOT PUSH1 0x1F DUP4 ADD AND SWAP1 POP SWAP2 SWAP1 POP JUMP JUMPDEST PUSH32 0x4E487B7100000000000000000000000000000000000000000000000000000000 PUSH1 0x0 MSTORE PUSH1 0x41 PUSH1 0x4 MSTORE PUSH1 0x24 PUSH1 0x0 REVERT JUMPDEST PUSH2 0x29C DUP3 PUSH2 0x253 JUMP JUMPDEST DUP2 ADD DUP2 DUP2 LT PUSH8 0xFFFFFFFFFFFFFFFF DUP3 GT OR ISZERO PUSH2 0x2BB JUMPI PUSH2 0x2BA PUSH2 0x264 JUMP JUMPDEST JUMPDEST DUP1 PUSH1 0x40 MSTORE POP POP POP JUMP JUMPDEST PUSH1 0x0 PUSH2 0x2CE PUSH2 0x235 JUMP JUMPDEST SWAP1 POP PUSH2 0x2DA DUP3 DUP3 PUSH2 0x293 JUMP JUMPDEST SWAP2 SWAP1 POP JUMP JUMPDEST PUSH1 0x0 PUSH8 0xFFFFFFFFFFFFFFFF DUP3 GT ISZERO PUSH2 0x2FA JUMPI PUSH2 0x2F9 PUSH2 0x264 JUMP JUMPDEST JUMPDEST PUSH2 0x303 DUP3 PUSH2 0x253 JUMP JUMPDEST SWAP1 POP PUSH1 0x20 DUP2 ADD SWAP1 POP SWAP2 SWAP1 POP JUMP JUMPDEST DUP3 DUP2 DUP4 CALLDATACOPY PUSH1 0x0 DUP4 DUP4 ADD MSTORE POP POP POP JUMP JUMPDEST PUSH1 0x0 PUSH2 0x332 PUSH2 0x32D DUP5 PUSH2 0x2DF JUMP JUMPDEST PUSH2 0x2C4 JUMP JUMPDEST SWAP1 POP DUP3 DUP2 MSTORE PUSH1 0x20 DUP2 ADD DUP5 DUP5 DUP5 ADD GT ISZERO PUSH2 0x34E JUMPI PUSH2 0x34D PUSH2 0x24E JUMP JUMPDEST JUMPDEST PUSH2 0x359 DUP5 DUP3 DUP6 PUSH2 0x310 JUMP JUMPDEST POP SWAP4 SWAP3 POP POP POP JUMP JUMPDEST PUSH1 0x0 DUP3 PUSH1 0x1F DUP4 ADD SLT PUSH2 0x376 JUMPI PUSH2 0x375 PUSH2 0x249 JUMP JUMPDEST JUMPDEST DUP2 CALLDATALOAD PUSH2 0x386 DUP5 DUP3 PUSH1 0x20 DUP7 ADD PUSH2 0x31F JUMP JUMPDEST SWAP2 POP POP SWAP3 SWAP2 POP POP JUMP JUMPDEST PUSH1 0x0 PUSH1 0x20 DUP3 DUP5 SUB SLT ISZERO PUSH2 0x3A5 JUMPI PUSH2 0x3A4 PUSH2 0x23F JUMP JUMPDEST JUMPDEST PUSH1 0x0 DUP3 ADD CALLDATALOAD PUSH8 0xFFFFFFFFFFFFFFFF DUP2 GT ISZERO PUSH2 0x3C3 JUMPI PUSH2 0x3C2 PUSH2 0x244 JUMP JUMPDEST JUMPDEST PUSH2 0x3CF DUP5 DUP3 DUP6 ADD PUSH2 0x361 JUMP JUMPDEST SWAP2 POP POP SWAP3 SWAP2 POP POP JUMP JUMPDEST PUSH1 0x0 PUSH20 0xFFFFFFFFFFFFFFFFFFFFFFFFFFFFFFFFFFFFFFFF DUP3 AND SWAP1 POP SWAP2 SWAP1 POP JUMP JUMPDEST PUSH1 0x0 PUSH2 0x403 DUP3 PUSH2 0x3D8 JUMP JUMPDEST SWAP1 POP SWAP2 SWAP1 POP JUMP JUMPDEST PUSH2 0x413 DUP2 PUSH2 0x3F8 JUMP JUMPDEST DUP3 MSTORE POP POP JUMP JUMPDEST PUSH1 0x0 PUSH1 0x20 DUP3 ADD SWAP1 POP PUSH2 0x42E PUSH1 0x0 DUP4 ADD DUP5 PUSH2 0x40A JUMP JUMPDEST SWAP3 SWAP2 POP POP JUMP JUMPDEST PUSH1 0x0 DUP2 MLOAD SWAP1 POP SWAP2 SWAP1 POP JUMP JUMPDEST PUSH1 0x0 DUP3 DUP3 MSTORE PUSH1 0x20 DUP3 ADD SWAP1 POP SWAP3 SWAP2 POP POP JUMP JUMPDEST PUSH1 0x0 JUMPDEST DUP4 DUP2 LT ISZERO PUSH2 0x46E JUMPI DUP1 DUP3 ADD MLOAD DUP2 DUP5 ADD MSTORE PUSH1 0x20 DUP2 ADD SWAP1 POP PUSH2 0x453 JUMP JUMPDEST DUP4 DUP2 GT ISZERO PUSH2 0x47D JUMPI PUSH1 0x0 DUP5 DUP5 ADD MSTORE JUMPDEST POP POP POP POP JUMP JUMPDEST PUSH1 0x0 PUSH2 0x48E DUP3 PUSH2 0x434 JUMP JUMPDEST PUSH2 0x498 DUP2 DUP6 PUSH2 0x43F JUMP JUMPDEST SWAP4 POP PUSH2 0x4A8 DUP2 DUP6 PUSH1 0x20 DUP7 ADD PUSH2 0x450 JUMP JUMPDEST PUSH2 0x4B1 DUP2 PUSH2 0x253 JUMP JUMPDEST DUP5 ADD SWAP2 POP POP SWAP3 SWAP2 POP POP JUMP JUMPDEST PUSH1 0x0 PUSH1 0x20 DUP3 ADD SWAP1 POP DUP2 DUP2 SUB PUSH1 0x0 DUP4 ADD MSTORE PUSH2 0x4D6 DUP2 DUP5 PUSH2 0x483 JUMP JUMPDEST SWAP1 POP SWAP3 SWAP2 POP POP JUMP JUMPDEST PUSH32 0x4E487B7100000000000000000000000000000000000000000000000000000000 PUSH1 0x0 MSTORE PUSH1 0x22 PUSH1 0x4 MSTORE PUSH1 0x24 PUSH1 0x0 REVERT JUMPDEST PUSH1 0x0 PUSH1 0x2 DUP3 DIV SWAP1 POP PUSH1 0x1 DUP3 AND DUP1 PUSH2 0x525 JUMPI PUSH1 0x7F DUP3 AND SWAP2 POP JUMPDEST PUSH1 0x20 DUP3 LT DUP2 SUB PUSH2 0x538 JUMPI PUSH2 0x537 PUSH2 0x4DE JUMP JUMPDEST JUMPDEST POP SWAP2 SWAP1 POP JUMP JUMPDEST PUSH1 0x0 DUP2 SWAP1 POP DUP2 PUSH1 0x0 MSTORE PUSH1 0x20 PUSH1 0x0 KECCAK256 SWAP1 POP SWAP2 SWAP1 POP JUMP JUMPDEST PUSH1 0x0 PUSH1 0x20 PUSH1 0x1F DUP4 ADD DIV SWAP1 POP SWAP2 SWAP1 POP JUMP JUMPDEST PUSH1 0x0 DUP3 DUP3 SHL SWAP1 POP SWAP3 SWAP2 POP POP JUMP JUMPDEST PUSH1 0x0 PUSH1 0x8 DUP4 MUL PUSH2 0x5A0 PUSH32 0xFFFFFFFFFFFFFFFFFFFFFFFFFFFFFFFFFFFFFFFFFFFFFFFFFFFFFFFFFFFFFFFF DUP3 PUSH2 0x563 JUMP JUMPDEST PUSH2 0x5AA DUP7 DUP4 PUSH2 0x563 JUMP JUMPDEST SWAP6 POP DUP1 NOT DUP5 AND SWAP4 POP DUP1 DUP7 AND DUP5 OR SWAP3 POP POP POP SWAP4 SWAP3 POP POP POP JUMP JUMPDEST PUSH1 0x0 DUP2 SWAP1 POP SWAP2 SWAP1 POP JUMP JUMPDEST PUSH1 0x0 PUSH2 0x5E7 PUSH2 0x5E2 PUSH2 0x5DD DUP5 PUSH2 0x201 JUMP JUMPDEST PUSH2 0x5C2 JUMP JUMPDEST PUSH2 0x201 JUMP JUMPDEST SWAP1 POP SWAP2 SWAP1 POP JUMP JUMPDEST PUSH1 0x0 DUP2 SWAP1 POP SWAP2 SWAP1 POP JUMP JUMPDEST PUSH2 0x601 DUP4 PUSH2 0x5CC JUMP JUMPDEST PUSH2 0x615 PUSH2 0x60D DUP3 PUSH2 0x5EE JUMP JUMPDEST DUP5 DUP5 SLOAD PUSH2 0x570 JUMP JUMPDEST DUP3 SSTORE POP POP POP POP JUMP JUMPDEST PUSH1 0x0 SWAP1 JUMP JUMPDEST PUSH2 0x62A PUSH2 0x61D JUMP JUMPDEST PUSH2 0x635 DUP2 DUP5 DUP5 PUSH2 0x5F8 JUMP JUMPDEST POP POP POP JUMP JUMPDEST JUMPDEST DUP2 DUP2 LT ISZERO PUSH2 0x659 JUMPI PUSH2 0x64E PUSH1 0x0 DUP3 PUSH2 0x622 JUMP JUMPDEST PUSH1 0x1 DUP2 ADD SWAP1 POP PUSH2 0x63B JUMP JUMPDEST POP POP JUMP JUMPDEST PUSH1 0x1F DUP3 GT ISZERO PUSH2 0x69E JUMPI PUSH2 0x66F DUP2 PUSH2 0x53E JUMP JUMPDEST PUSH2 0x678 DUP5 PUSH2 0x553 JUMP JUMPDEST DUP2 ADD PUSH1 0x20 DUP6 LT ISZERO PUSH2 0x687 JUMPI DUP2 SWAP1 POP JUMPDEST PUSH2 0x69B PUSH2 0x693 DUP6 PUSH2 0x553 JUMP JUMPDEST DUP4 ADD DUP3 PUSH2 0x63A JUMP JUMPDEST POP POP JUMPDEST POP POP POP JUMP JUMPDEST PUSH1 0x0 DUP3 DUP3 SHR SWAP1 POP SWAP3 SWAP2 POP POP JUMP JUMPDEST PUSH1 0x0 PUSH2 0x6C1 PUSH1 0x0 NOT DUP5 PUSH1 0x8 MUL PUSH2 0x6A3 JUMP JUMPDEST NOT DUP1 DUP4 AND SWAP2 POP POP SWAP3 SWAP2 POP POP JUMP JUMPDEST PUSH1 0x0 PUSH2 0x6DA DUP4 DUP4 PUSH2 0x6B0 JUMP JUMPDEST SWAP2 POP DUP3 PUSH1 0x2 MUL DUP3 OR SWAP1 POP SWAP3 SWAP2 POP POP JUMP JUMPDEST PUSH2 0x6F3 DUP3 PUSH2 0x434 JUMP JUMPDEST PUSH8 0xFFFFFFFFFFFFFFFF DUP2 GT ISZERO PUSH2 0x70C JUMPI PUSH2 0x70B PUSH2 0x264 JUMP JUMPDEST JUMPDEST PUSH2 0x716 DUP3 SLOAD PUSH2 0x50D JUMP JUMPDEST PUSH2 0x721 DUP3 DUP3 DUP6 PUSH2 0x65D JUMP JUMPDEST PUSH1 0x0 PUSH1 0x20 SWAP1 POP PUSH1 0x1F DUP4 GT PUSH1 0x1 DUP2 EQ PUSH2 0x754 JUMPI PUSH1 0x0 DUP5 ISZERO PUSH2 0x742 JUMPI DUP3 DUP8 ADD MLOAD SWAP1 POP JUMPDEST PUSH2 0x74C DUP6 DUP3 PUSH2 0x6CE JUMP JUMPDEST DUP7 SSTORE POP PUSH2 0x7B4 JUMP JUMPDEST PUSH1 0x1F NOT DUP5 AND PUSH2 0x762 DUP7 PUSH2 0x53E JUMP JUMPDEST PUSH1 0x0 JUMPDEST DUP3 DUP2 LT ISZERO PUSH2 0x78A JUMPI DUP5 DUP10 ADD MLOAD DUP3 SSTORE PUSH1 0x1 DUP3 ADD SWAP2 POP PUSH1 0x20 DUP6 ADD SWAP5 POP PUSH1 0x20 DUP2 ADD SWAP1 POP PUSH2 0x765 JUMP JUMPDEST DUP7 DUP4 LT ISZERO PUSH2 0x7A7 JUMPI DUP5 DUP10 ADD MLOAD PUSH2 0x7A3 PUSH1 0x1F DUP10 AND DUP3 PUSH2 0x6B0 JUMP JUMPDEST DUP4 SSTORE POP JUMPDEST PUSH1 0x1 PUSH1 0x2 DUP9 MUL ADD DUP9 SSTORE POP POP POP JUMPDEST POP POP POP POP POP POP JUMP JUMPDEST PUSH32 0x4E487B7100000000000000000000000000000000000000000000000000000000 PUSH1 0x0 MSTORE PUSH1 0x11 PUSH1 0x4 MSTORE PUSH1 0x24 PUSH1 0x0 REVERT JUMPDEST PUSH1 0x0 PUSH2 0x7F6 DUP3 PUSH2 0x201 JUMP JUMPDEST SWAP2 POP PUSH32 0xFFFFFFFFFFFFFFFFFFFFFFFFFFFFFFFFFFFFFFFFFFFFFFFFFFFFFFFFFFFFFFFF DUP3 SUB PUSH2 0x828 JUMPI PUSH2 0x827 PUSH2 0x7BC JUMP JUMPDEST JUMPDEST PUSH1 0x1 DUP3 ADD SWAP1 POP SWAP2 SWAP1 POP JUMP INVALID LOG2 PUSH5 0x6970667358 0x22 SLT KECCAK256 PUSH22 0x2EC9BD01836168F9E273C72F03085E4F75557A4A2038 0x29 0xE9 EXTCODECOPY 0xF7 DUP15 0xD6 0x2E PUSH2 0xAC64 PUSH20 0x6F6C634300080F00330000000000000000000000 "
				},
				"gasEstimates": {
					"creation": {
						"codeDepositCost": "430600",
						"executionCost": "24734",
						"totalCost": "455334"
					},
					"external": {
						"count()": "2407",
						"message()": "infinite",
						"owner()": "2536",
						"updateMessage(string)": "infinite"
					}
				},
				"methodIdentifiers": {
					"count()": "06661abd",
					"message()": "e21f37ce",
					"owner()": "8da5cb5b",
					"updateMessage(string)": "1923be24"
				}
			},
			"storageLayout": {
				"storage": [
					{
						"astId": 3,
						"contract": "contracts/PROJECTS/MESSENGER/Contract.sol:Contract",
						"label": "count",
						"offset": 0,
						"slot": "0",
						"type": "t_uint256"
					},
					{
						"astId": 5,
						"contract": "contracts/PROJECTS/MESSENGER/Contract.sol:Contract",
						"label": "owner",
						"offset": 0,
						"slot": "1",
						"type": "t_address"
					},
					{
						"astId": 7,
						"contract": "contracts/PROJECTS/MESSENGER/Contract.sol:Contract",
						"label": "message",
						"offset": 0,
						"slot": "2",
						"type": "t_string_storage"
					}
				],
				"types": {
					"t_address": {
						"encoding": "inplace",
						"label": "address",
						"numberOfBytes": "20"
					},
					"t_string_storage": {
						"encoding": "bytes",
						"label": "string",
						"numberOfBytes": "32"
					},
					"t_uint256": {
						"encoding": "inplace",
						"label": "uint256",
						"numberOfBytes": "32"
					}
				}
			},
			"userdoc": {
				"kind": "user",
				"methods": {},
				"version": 1
			}
		}
	}
}